:1000000018C0B4C12FC02EC02DC02CC015C12AC02D
:1000100029C029C027C026C025C024C023C022C0B3
:100020002DC0D9C1E8C1E9C1E8C125C224C23CC282
:10003000D4C111241FBECFEDCDBF10E0A0E6B0E0CB
:10004000EAE8F5E002C005900D92A236B107D9F7B3
:1000500020E0A2E6B0E001C01D92A839B207E1F7A6
:1000600087D291C2CDCF1F920F920FB60F9211245B
:10007000689A0F900FBE0F901F9018951F920F92C5
:100080000FB60F9211248F938091970080FF03C0C9
:1000900089B78D7F89BF80E48EB980919700826097
:1000A000809397008FB1809396008F910F900FBE31
:1000B0000F901F9018959AB390639ABBD698DE9ACA
:1000C000880F880F8A658DB983E083BF81E086BF82
:1000D00080919700816080939700809197008D7F39
:1000E00080939700809197008B7F80939700109268
:1000F00096000895D59AD6989BB390659BBB880FC0
:10010000880F88658DB9809197008E7F80939700C6
:10011000809197008D7F80939700809197008B7FCF
:10012000809397001092960008959EB19F7039F0C9
:100130008091970084608093970080E0089590916B
:1001400097009D7F90939700909197009B7F90934D
:1001500097008FB98091970080FF06C088B78260B2
:1001600088BF89B7826089BF8091970082FB88270A
:1001700080F991E0892708958091960008958091F3
:10018000970081FFFCCF0895D198D398B99AC19870
:10019000D698089582E085BF8BB780648BBFBA98EC
:1001A000C29A6E986C9808958EB582608EBD8EB599
:1001B00088608EBD88EC90E09BBD8ABD619A0895F1
:1001C0000098379A86B1866086B917B83F983E9AEC
:1001D0000895F8941092800010929500D5DFF0DF1A
:1001E000D9DFE2DF7894089597B1907E97B997B1FF
:1001F0008F71892B87B9369A3699FECF24B185B194
:1002000090E0982F8827820F911D089525E1623094
:1002100019F4ECE6F0E002C0E1E8F0E0DC01019066
:100220000D922A95E1F70895843019F488E690E05C
:10023000089584E690E008951F920F920FB60F92F2
:1002400011242F933F934F935F936F937F938F93DB
:100250009F93AF93BF93CF93DF93EF93FF93C0919F
:10026000800081E08C0F80938000D0E083E0BCDFD1
:10027000FE01EE0FFF1FE459FF4F918380838091B1
:10028000680090916900892BF1F0E0918000F0E026
:10029000EE0FFF1FE659FF4F2081318180916800EA
:1002A000909169002817390770F0E0918000F0E024
:1002B000EE0FFF1FE659FF4F8081918190936700F9
:1002C00080936600C19A809180008A3011F4109268
:1002D0008000C091950081E08C0F80939500D0E064
:1002E00081E082DFFE01EE0FFF1FEF57FF4F91838A
:1002F00080838091640090916500892BF1F0E091FA
:100300009500F0E0EE0FFF1FE158FF4F2081318193
:1003100080916400909165002817390770F0E09192
:100320009500F0E0EE0FFF1FE158FF4F80819181B3
:100330009093630080936200C19A809195008A3007
:1003400011F410929500FF91EF91DF91CF91BF9141
:10035000AF919F918F917F916F915F914F913F915D
:100360002F910F900FBE0F901F9018951F920F9214
:100370000FB60F921124FF920F931F932F933F9369
:100380004F935F936F937F938F939F93AF93BF939D
:10039000EF93FF93CF93DF93CDB7DD27C751CDBF49
:1003A000619880E0A7DE78948DB180658DB985E590
:1003B000BCDEE5DE109196001F8A1E8A812FB5DE15
:1003C000DEDE412F50E04830510508F090C0FA01C0
:1003D000EF5EFF4F099483E30BC080916000909122
:1003E0006100892FA2DECBDE8091600090916100D8
:1003F0009CDEC5DE7CC082E0FBCF612FCE01019682
:1004000005DF809196008F8B8F898FDEB8DE10928A
:100410006B0010926A0009E0F02E20916A00309182
:100420006B008F8990E0281739071CF58D898111A1
:1004300001C0FD8A8D8981508D8BED89F0E0EE0F32
:10044000FF1F81E090E08C0F9D1FE80FF91F0081D6
:100450001181812F6ADE93DE802F67DE90DE80912E
:100460006A0090916B00019690936B0080936A00F4
:10047000D4CF86E1BDCF1E8A8E8980E056DE7FDE36
:100480008E8990919600892B8E8B8E894EDE77DE39
:10049000143019F4E8E6F0E002C0E4E6F0E08E89FA
:1004A00090E09183808323C08091660090916700E3
:1004B000892F3BDE64DE809166009091670035DE17
:1004C0005EDE10926700109266008091620090914B
:1004D0006300892F2ADE53DE8091620090916300D1
:1004E00024DE4DDE1092630010926200C1986E9877
:1004F0006C98D698D598619AC95ECDBFDF91CF919F
:10050000FF91EF91BF91AF919F918F917F916F91EB
:100510005F914F913F912F911F910F91FF900F90FD
:100520000FBE0F901F9018950097F9F0E0E0F0E0F3
:100530002FEF3FEF449150E0A8E0B9016427752701
:100540003695279560FF04C068E0262764E83627C3
:1005500056954795A15089F73196E817F90751F755
:1005600020953095922F832F089580E090E0089594
:1005700083EC92E0880F991FD7DF909361008093FE
:0A058000600027DEFFCFF894FFCFE4
:02058A00FFFF71
:00000001FF
