:1000000019C0CDC130C02FC02EC02DC02EC12BC0F5
:100010002AC02AC028C027C026C025C024C023C0AB
:100020002EC0F4C103C206C205C242C241C263C2AD
:10003000EFC1FEC111241FBECFEDCDBF10E0A0E681
:10004000B0E0EAEFF5E002C005900D92A236B107EC
:10005000D9F710E0A2E6B0E001C01D92A839B107BF
:10006000E1F7C5D0C8C2CCCF1F920F920FB60F9246
:100070001124689A0F900FBE0F901F9018951F9231
:100080000F920FB60F9211248F938091970080FFEB
:1000900003C089B78D7F89BF80E48EB980919700B6
:1000A0008260809397008FB1809396008F910F901C
:1000B0000FBE0F901F9018959AB390639ABBD69875
:1000C000DE9A880F880F8A658DB983E083BF81E04F
:1000D00086BF809197008160809397008091970000
:1000E0008D7F80939700809197008B7F80939700FE
:1000F000109296000895D59AD6989BB390659BBBB5
:10010000880F880F88658DB9809197008E7F8093C6
:100110009700809197008D7F809397008091970042
:100120008B7F809397001092960008952EB130E057
:100130002F7030702115310539F08091970084605F
:100140008093970080E00895909197009D7F909311
:100150009700909197009B7F909397008FB9809123
:10016000970080FF06C088B7826088BF89B7826029
:1001700089BF9091970081E092FD80E00895809181
:10018000960008958091970081FFFCCF0895D19843
:10019000D398B99AC198D698089582E085BF8BB755
:1001A00080648BBFBA98C29A6E986C9808958EB589
:1001B00082608EBD8EB588608EBD88EC90E09BBD60
:1001C0008ABD619A08950098379A86B1866086B98B
:1001D00017B83F983E9A0895F894109280001092B4
:1001E0009500D5DFF0DFD9DFE2DF789408958BEF5B
:1001F00092E0880F991FC1D19093610080936000B5
:10020000EBDFFFCF97B1907E97B997B18F71892BB4
:1002100087B9369A3699FECF84B195B1392F20E04F
:10022000280F311DC9010895623059F4282F392F44
:10023000D901ECE6F0E025E101900D922150E1F7C3
:100240000895282F392FD901E1E8F0E025E1019048
:100250000D922150E1F70895843019F424E630E03E
:1002600002C028E630E0C90108951F920F920FB630
:100270000F9211241F932F933F934F935F936F938C
:100280007F938F939F93AF93BF93CF93DF93EF931E
:10029000FF9310918000C12FD0E083E0B3DFCC0F3B
:1002A000DD1FC459DF4F998388831F5F109380003F
:1002B00080916400909165000097F1F0E0918000DA
:1002C000F0E0EE0FFF1FE659FF4F20813181809152
:1002D0006400909165002817390770F0E091800064
:1002E000F0E0EE0FFF1FE659FF4F80819181909360
:1002F000670080936600C19A809180008A3011F473
:100300001092800010919500C12FD0E081E07ADF3B
:10031000CC0FDD1FCF57DF4F998388831F5F10936A
:10032000950080916800909169000097F1F0E0914C
:100330009500F0E0EE0FFF1FE158FF4F2081318163
:1003400080916800909169002817390770F0E0915A
:100350009500F0E0EE0FFF1FE158FF4F8081918183
:1003600090936B0080936A00C19A809195008A30C7
:1003700011F410929500FF91EF91DF91CF91BF9111
:10038000AF919F918F917F916F915F914F913F912D
:100390002F911F910F900FBE0F901F9018951F92D5
:1003A0000F920FB60F921124DF92EF92FF920F93EC
:1003B0001F932F933F934F935F936F937F938F93ED
:1003C0009F93AF93BF93EF93FF93DF93CF93CDB7FB
:1003D000DEB7C851CDBF619880E08DDE78948DB1D5
:1003E00080658DB985E5A2DECDDE0091960019828B
:1003F0001B821A82802F9ADEC5DEE02FF0E0E93002
:10040000F10508F09BC0EF5EFF4F099483E30BC03A
:100410008091600090916100892F88DEB3DE809129
:1004200060009091610082DEADDE88C0D8D0FBCF45
:10043000D2D0F9CFCE010496602FF6DE80919600DF
:100440008983898173DE9EDE1092630010926200C0
:10045000B9E0DB2E7E010894E11CF11C1EC0888DE2
:10046000882309F4D88E888D8150888FE88DF0E03C
:10047000EE0FFF1FEE0DFF1D03811481812F56DE4D
:1004800081DE802F53DE7EDE8091620090916300DA
:1004900001969093630080936200209162003091F6
:1004A0006300898190E028173907CCF286E1BBCF41
:1004B0003091960020E03B832A832A813B81832F61
:1004C00035DE60DE4A815B812091960030E0242B8E
:1004D000352B3B832A838A819B8128DE53DE0430BF
:1004E00019F4E4E6F0E002C0E8E6F0E08A819B81DE
:1004F0009183808323C08091660090916700892F4B
:1005000015DE40DE80916600909167000FDE3ADED6
:10051000109267001092660080916A0090916B00C3
:10052000892F04DE2FDE80916A0090916B00FEDD42
:1005300029DE10926B0010926A00C1986E986C9838
:10054000D698D598619AC85ECDBFCF91DF91FF91C3
:10055000EF91BF91AF919F918F917F916F915F913B
:100560004F913F912F911F910F91FF90EF90DF904E
:100570000F900FBE0F901F901895CF93009731F1F9
:1005800040E050E02FEF3FEF68E074E8FA014F5F82
:100590005F4FE491F0E0C8E0D901AE27BF27369560
:1005A0002795A0FF02C026273727C15019F0F695DE
:1005B000E795F2CF4817590749F720953095922FC4
:1005C0008827232F3327282B392B02C020E030E047
:1005D000C901CF91089580E090E005D0089581E0B1
:1005E00090E001D00895E199FECF1FBA8EBBE09A4A
:0A05F00099278DB30895F894FFCF0A
:0205FA00FFFF01
:00000001FF
