:1000000018C0BEC12FC02EC02DC02CC01DC12AC01B
:1000100029C029C027C026C025C024C023C022C0B3
:100020002DC0E5C1F4C1F5C1F4C131C230C250C226
:10003000E0C111241FBECFEDCDBF10E0A0E6B0E0BF
:10004000EEEBF5E002C005900D92A236B107D9F7AC
:1000500010E0A2E6B0E001C01D92A839B107E1F7B7
:10006000A1D2ABC2CDCF1F920F920FB60F92112427
:10007000689A0F900FBE0F901F9018951F920F92C5
:100080000FB60F9211248F938091970080FF03C0C9
:1000900089B78D7F89BF80E48EB980919700826097
:1000A000809397008FB1809396008F910F900FBE31
:1000B0000F901F9018959AB390639ABBD698DE9ACA
:1000C00090E0880F991F880F991F8A658DB983E08A
:1000D00083BF81E086BF8091970081608093970005
:1000E000809197008D7F80939700809197008B7F00
:1000F00080939700109296000895D59AD6989BB356
:1001000090659BBB90E0880F991F880F991F8865A9
:100110008DB9809197008E7F809397008091970092
:100120008D7F80939700809197008B7F80939700BD
:100130001092960008959EB19F7039F080919700BB
:1001400084608093970080E00895909197009D7F50
:1001500090939700909197009B7F909397008FB911
:100160008091970080FF06C088B7826088BF89B7FA
:10017000826089BF8091970082FB882780F991E097
:10018000892708958091960008958091970081FFB6
:10019000FCCF0895D198D398B99AC198D69808956C
:1001A00082E085BF8BB780648BBFBA98C29A6E9885
:1001B0006C9808958EB582608EBD8EB588608EBDB8
:1001C00088EC90E09BBD8ABD619A08950098379AAB
:1001D00086B1866086B917B83F983E9A0895F8941C
:1001E0001092800010929500D5DFF0DFD9DFE2DFBA
:1001F0007894089597B1907E97B997B18F71892BB4
:1002000087B9369A3699FECF24B135B1932F80E065
:10021000AC01420F511DCA01089525E1623019F465
:10022000ECE6F0E002C0E1E8F0E0DC0101900D92C4
:100230002A95E1F70895843019F428E630E002C0E9
:1002400024E630E0C90108951F920F920FB60F9275
:1002500011241F932F933F934F935F936F937F933B
:100260008F939F93AF93BF93CF93DF93EF93FF93BE
:1002700010918000C12FD0E083E0BCDFFE01EE0FC3
:10028000FF1FE459FF4F918380831F5F109380000D
:100290008091680090916900892BF1F0E0918000D5
:1002A000F0E0EE0FFF1FE659FF4F20813181809172
:1002B0006800909169002817390770F0E09180007C
:1002C000F0E0EE0FFF1FE659FF4F80819181909380
:1002D000670080936600C19A809180008A3011F493
:1002E0001092800010919500C12FD0E081E082DF54
:1002F000FE01EE0FFF1FEF57FF4F918380831F5FBB
:10030000109395008091640090916500892BF1F025
:10031000E0919500F0E0EE0FFF1FE158FF4F2081C4
:10032000318180916400909165002817390770F041
:10033000E0919500F0E0EE0FFF1FE158FF4F808144
:1003400091819093630080936200C19A809195009F
:100350008A3011F410929500FF91EF91DF91CF91C7
:10036000BF91AF919F918F917F916F915F914F91CD
:100370003F912F911F910F900FBE0F901F901895D6
:100380001F920F920FB60F921124DF92EF92FF92FD
:100390000F931F932F933F934F935F936F937F938D
:1003A0008F939F93AF93BF93EF93FF93CF93DF937D
:1003B000CDB7DD27C851CDBF619880E09EDE78942F
:1003C0008DB180658DB985E5B6DEDFDE10919600D2
:1003D000188E1F8A1E8A812FAEDED7DEE12FF0E055
:1003E000E830F10508F097C0EF5EFF4F099483E312
:1003F0000BC08091600090916100892F9CDEC5DE6A
:10040000809160009091610096DEBFDE84C083E041
:10041000FBCF612F8E010F5F1F4FC801FEDE809161
:100420009600888F888D87DEB0DE10926B00109268
:100430006A0089E0D82E78011FC08D89811101C022
:10044000DD8A8D8981508D8BED89F0E0EE0FFF1FE5
:10045000EE0DFF1D00811181812F6DDE96DE802F54
:100460006ADE93DE20916A0030916B002F5F3F4F70
:1004700030936B0020936A0020916A0030916B00EA
:10048000888D90E028173907C4F286E1BDCF3091FE
:10049000960020E03F8B2E8B2E893F89832F4BDEE9
:1004A00074DE2E893F8980919600282B3F8B2E8BFE
:1004B0008E899F8940DE69DE143019F4E8E6F0E0A9
:1004C00002C0E4E6F0E08E899F899183808323C097
:1004D0008091660090916700892F2DDE56DE809115
:1004E00066009091670027DE50DE10926700109240
:1004F00066008091620090916300892F1CDE45DECA
:10050000809162009091630016DE3FDE10926300DE
:1005100010926200C1986E986C98D698D598619A9E
:10052000C85ECDBFDF91CF91FF91EF91BF91AF91A9
:100530009F918F917F916F915F914F913F912F91FB
:100540001F910F91FF90EF90DF900F900FBE0F90D3
:100550001F901895009711F140E050E02FEF3FEF0A
:10056000FA014F5F5F4FE491F0E0A8E0B9016E2718
:100570007F273695279560FF04C068E0262764E84A
:100580003627F695E795A15089F74817590741F79F
:100590002095309532272327322702C020E030E013
:1005A000C90108958DED92E0880F991FD3DF9093D4
:0E05B00061008093600013DEFFCFF894FFCF50
:0205BE00FFFF3D
:00000001FF
