:1000000017C0A8C123C022C021C020C009C11EC082
:100010001DC01DC01BC01AC019C018C017C016C013
:1000200021C0CDC1CEC1D1C1D0C116C215C22DC211
:1000300011241FBECFEDCDBF20E0A0E6B0E001C08F
:100040001D92A639B207E1F760D261C2D9CF1F92E3
:100050000F920FB60F921124689A0F900FBE0F9057
:100060001F9018951F920F920FB60F9211248F9325
:100070008091950080FF03C089B78D7F89BF80E4A0
:100080008EB9809195008260809395008FB18093A6
:1000900094008F910F900FBE0F901F9018959AB3F8
:1000A00090639ABBD698DE9A880F880F8A658DB9BF
:1000B00083E083BF81E086BF80919500816080935B
:1000C0009500809195008D7F80939500809195009B
:1000D0008B7F80939500109294000895D59AD698BE
:1000E0009BB390659BBB880F880F88658DB9809105
:1000F00095008E7F80939500809195008D7F8093F1
:100100009500809195008B7F8093950010929400CC
:1001100008959EB19F7039F080919500846080931E
:10012000950080E00895909195009D7F90939500B3
:10013000909195009B7F909395008FB98091950049
:1001400080FF06C088B7826088BF89B7826089BF98
:100150008091950082FB882780F991E08927089596
:100160008091940008958091950081FFFCCF0895BF
:10017000D198D398B99AC198D698089582E085BF4E
:100180008BB780648BBFBA98C29A6E986C980895AA
:100190008EB582608EBD8EB588608EBD88EC90E095
:1001A0009BBD8ABD619A08950098379A86B1866092
:1001B00086B917B83F983E9A0895F89410927E0039
:1001C00010929300D5DFF0DFD9DFE2DF7894089555
:1001D00097B1907E97B997B18F71892B87B9369A6D
:1001E0003699FECF24B185B190E0982F8827820FF1
:1001F000911D089525E1623019F4EAE6F0E002C0AD
:10020000EFE7F0E0DC0101900D922A95E1F7089507
:10021000843019F486E690E0089582E690E008952F
:100220001F920F920FB60F9211242F933F934F936B
:100230005F936F937F938F939F93AF93BF93CF936E
:10024000DF93EF93FF93C0917E0081E08C0F80934A
:100250007E00D0E083E0BCDFFE01EE0FFF1FE65919
:10026000FF4F918380838091660090916700892B76
:10027000F1F0E0917E00F0E0EE0FFF1FE859FF4F34
:10028000208131818091660090916700281739079D
:1002900070F0E0917E00F0E0EE0FFF1FE859FF4F95
:1002A000808191819093650080936400C19A8091D0
:1002B0007E008A3011F410927E00C091930081E09C
:1002C0008C0F80939300D0E081E082DFFE01EE0F7F
:1002D000FF1FE158FF4F91838083809162009091CE
:1002E0006300892BF1F0E0919300F0E0EE0FFF1F27
:1002F000E358FF4F2081318180916200909163002B
:100300002817390770F0E0919300F0E0EE0FFF1F1F
:10031000E358FF4F8081918190936100809360004A
:10032000C19A809193008A3011F410929300FF914A
:10033000EF91DF91CF91BF91AF919F918F917F917D
:100340006F915F914F913F912F910F900FBE0F9042
:100350001F9018951F920F920FB60F921124FF92C3
:100360000F931F932F933F934F935F936F937F93BD
:100370008F939F93AF93BF93EF93FF93CF93DF93AD
:10038000CDB7DD27CC52CDBF619880E0A7DE789451
:100390008DB180658DB985E5BCDEE5DE10919400F8
:1003A0001F8A1E8A812FB5DEDEDE412F50E04730E6
:1003B000510508F08DC0FA01EF5EFF4F099483E309
:1003C00001C081E0A6DECFDE83C0612FCE0148965A
:1003D00011DF85E1FE017896DE01119601900D9204
:1003E0008A95E1F7809194008F8B8F8992DEBBDE36
:1003F000109269001092680009E0F02E20916800C8
:10040000309169008F8990E0281739071CF58D8994
:10041000811101C0FD8A8D8981508D8BED89F0E0BD
:10042000EE0FFF1F81E090E08C0F9D1FE80FF91F7A
:1004300000811181812F6DDE96DE802F6ADE93DED2
:100440008091680090916900019690936900809373
:100450006800D4CF86E1B6CF1E8A8E8980E059DE4F
:1004600082DE8E8990919400892B8E8B8E8951DE4D
:100470007ADE143019F4E6E6F0E002C0E2E6F0E0DD
:100480008E8990E09183808323C080916400909155
:100490006500892F3EDE67DE8091640090916500E3
:1004A00038DE61DE10926500109264008091600079
:1004B00090916100892F2DDE56DE80916000909131
:1004C000610027DE50DE1092610010926000C1983A
:1004D0006E986C98D698D598619AC45DCDBFDF911F
:1004E000CF91FF91EF91BF91AF919F918F917F91AC
:1004F0006F915F914F913F912F911F910F91FF90BD
:100500000F900FBE0F901F90189557DEFFCFF894F5
:02051000FFCF1B
:00000001FF
