:1000000018C0CBC131C030C02FC02EC02CC12CC0F5
:100010002BC02BC029C028C027C026C025C024C0A3
:100020002FC0F3C1F4C1F5C1F4C131C230C252C214
:1000300075C211241FBECFE5D2E0DEBFCDBF10E0F8
:10004000A0E6B0E0E6EFF5E002C005900D92A23622
:10005000B107D9F710E0A2E6B0E001C01D92A839BF
:10006000B107E1F7C5D0C5C2CBCF1F920F920FB633
:100070000F921124689A0F900FBE0F901F90189541
:100080001F920F920FB60F9211248F9380919700B9
:1000900080FF03C089B78D7F89BF80E48EB98091CE
:1000A00097008260809397008FB1809396008F9124
:1000B0000F900FBE0F901F9018959AB390639ABB44
:1000C000D698DE9A880F880F8A658DB983E083BF42
:1000D00081E086BF80919700816080939700809136
:1000E00097008D7F80939700809197008B7F8093FE
:1000F0009700109296000895D59AD6989BB3906574
:100100009BBB880F880F88658DB9809197008E7F83
:1001100080939700809197008D7F809397008091C6
:1001200097008B7F809397001092960008952EB1D0
:1001300030E02F7030702115310539F08091970033
:1001400084608093970080E00895909197009D7F50
:1001500090939700909197009B7F909397008FB911
:100160008091970080FF06C088B7826088BF89B7FA
:10017000826089BF9091970081E092FD80E00895B0
:100180008091960008958091970081FFFCCF08959B
:10019000D198D398B99AC198D698089582E085BF2E
:1001A0008BB780648BBFBA98C29A6E986C9808958A
:1001B0008EB582608EBD8EB588608EBD88EC90E075
:1001C0009BBD8ABD619A08950098379A86B1866072
:1001D00086B917B83F983E9A0895F8941092800017
:1001E00010929500D5DFF0DFD9DFE2DF7894089533
:1001F00084EE98E59093610080936000EEDFFFCF7E
:1002000097B1907E97B997B18F71892B87B9369A3C
:100210003699FECF84B195B1392F20E0280F311DDA
:10022000C9010895623059F4282F392FD901ECE61D
:10023000F0E025E101900D922150E1F70895282F7B
:10024000392FD901E1E8F0E025E101900D9221502C
:10025000E1F70895843019F424E630E002C028E67E
:1002600030E0C90108951F920F920FB60F9211242A
:100270001F932F933F934F935F936F937F938F932E
:100280009F93AF93BF93CF93DF93EF93FF9310911F
:100290008000C12FD0E083E0B3DFCC0FDD1FC45955
:1002A000DF4F998388831F5F1093800080916400E3
:1002B000909165000097F1F0E0918000F0E0EE0F82
:1002C000FF1FE659FF4F208131818091640090919A
:1002D00065002817390770F0E0918000F0E0EE0F1C
:1002E000FF1FE659FF4F80819181909367008093B3
:1002F0006600C19A809180008A3011F410928000CB
:1003000010919500C12FD0E081E07ADFCC0FDD1F86
:10031000CF57DF4F998388831F5F1093950080919B
:100320006800909169000097F1F0E0919500F0E08D
:10033000EE0FFF1FE158FF4F20813181809168004F
:10034000909169002817390770F0E0919500F0E06E
:10035000EE0FFF1FE158FF4F8081918190936B005A
:1003600080936A00C19A809195008A3011F41092AE
:100370009500FF91EF91DF91CF91BF91AF919F9148
:100380008F917F916F915F914F913F912F911F912D
:100390000F900FBE0F901F9018951F920F920FB6DF
:1003A0000F921124DF92EF92FF920F931F932F93DE
:1003B0003F934F935F936F937F938F939F93AF93ED
:1003C000BF93EF93FF93DF93CF93CDB7DEB76897DB
:1003D000DEBFCDBF619880E08FDE78948DB18065FF
:1003E0008DB985E5A4DECFDE0091960019821B82CF
:1003F0001A82802F9CDEC7DEE02FF0E0E830F105A6
:1004000008F099C0EF5EFF4F099483E392C080E14A
:1004100090C0CE010496602F05DF809196008983FD
:10042000898185DEB0DE109263001092620079E06F
:10043000D72E7E010894E11CF11C1EC0888D8823F4
:1004400009F4D88E888D8150888FE88DF0E0EE0F0A
:10045000FF1FEE0DFF1D03811481812F68DE93DEE7
:10046000802F65DE90DE809162009091630001969E
:10047000909363008093620020916200309163004A
:10048000898190E028173907CCF286E152C030917B
:10049000960020E03B832A832A813B81832F47DE1D
:1004A00072DE4A815B812091960030E0242B352B4F
:1004B0003B832A838A819B813ADE65DE043019F40E
:1004C000E4E6F0E002C0E8E6F0E08A819B819183F7
:1004D000808331C08091660090916700892F27DE6C
:1004E00052DE809166009091670021DE4CDE109212
:1004F00067001092660080916A0090916B00892FCE
:1005000016DE41DE80916A0090916B0010DE3BDECA
:1005100010926B0010926A00C1980DC0809160002B
:1005200090916100892F03DE2EDE80916000909112
:100530006100FDDD28DE6E986C98D698D598619A9A
:100540006896DEBFCDBFCF91DF91FF91EF91BF9154
:10055000AF919F918F917F916F915F914F913F915B
:100560002F911F910F91FF90EF90DF900F900FBE92
:100570000F901F901895CF93009731F140E050E015
:100580002FEF3FEF68E074E8FA014F5F5F4FE491AF
:10059000F0E0C8E0D901AE27BF2736952795A0FF28
:1005A00002C026273727C15019F0F695E795F2CFFC
:1005B0004817590749F720953095922F8827232F00
:1005C0003327282B392B02C020E030E0C901CF911E
:1005D000089580E090E005D0089581E090E001D09A
:1005E0000895E199FECF9FBB8EBBE09A99278DB30A
:0605F0000895F894FFCF0E
:0205F600FFFF05
:00000001FF
